{
    "contractName": "Pond",
    "abi": [
        {
            "inputs": [
                {
                    "components": [
                        {
                            "internalType": "string",
                            "name": "name",
                            "type": "string"
                        },
                        {
                            "internalType": "contract ERC20",
                            "name": "token",
                            "type": "address"
                        },
                        {
                            "internalType": "uint256",
                            "name": "minLoanAmount",
                            "type": "uint256"
                        },
                        {
                            "internalType": "uint256",
                            "name": "maxLoanAmount",
                            "type": "uint256"
                        },
                        {
                            "internalType": "uint256",
                            "name": "minLoanDuration",
                            "type": "uint256"
                        },
                        {
                            "internalType": "uint256",
                            "name": "maxLoanDuration",
                            "type": "uint256"
                        },
                        {
                            "internalType": "uint256",
                            "name": "annualInterestRate",
                            "type": "uint256"
                        },
                        {
                            "internalType": "uint256",
                            "name": "disbursmentFee",
                            "type": "uint256"
                        },
                        {
                            "internalType": "uint256",
                            "name": "cashBackRate",
                            "type": "uint256"
                        }
                    ],
                    "internalType": "struct Types.PondParams",
                    "name": "_params",
                    "type": "tuple"
                },
                {
                    "components": [
                        {
                            "internalType": "string[]",
                            "name": "names",
                            "type": "string[]"
                        },
                        {
                            "internalType": "string[]",
                            "name": "types",
                            "type": "string[]"
                        },
                        {
                            "internalType": "string[]",
                            "name": "contents",
                            "type": "string[]"
                        },
                        {
                            "internalType": "string[]",
                            "name": "operators",
                            "type": "string[]"
                        }
                    ],
                    "internalType": "struct Types.PondCriteriaInput",
                    "name": "_criteria",
                    "type": "tuple"
                }
            ],
            "stateMutability": "nonpayable",
            "type": "constructor"
        },
        {
            "anonymous": false,
            "inputs": [
                {
                    "indexed": true,
                    "internalType": "address",
                    "name": "previousOwner",
                    "type": "address"
                },
                {
                    "indexed": true,
                    "internalType": "address",
                    "name": "newOwner",
                    "type": "address"
                }
            ],
            "name": "OwnershipTransferred",
            "type": "event"
        },
        {
            "inputs": [],
            "name": "accruedInterest",
            "outputs": [
                {
                    "internalType": "uint256",
                    "name": "",
                    "type": "uint256"
                }
            ],
            "stateMutability": "view",
            "type": "function"
        },
        {
            "inputs": [],
            "name": "active",
            "outputs": [
                {
                    "internalType": "bool",
                    "name": "",
                    "type": "bool"
                }
            ],
            "stateMutability": "view",
            "type": "function"
        },
        {
            "inputs": [
                {
                    "internalType": "uint256",
                    "name": "_amount",
                    "type": "uint256"
                },
                {
                    "internalType": "uint256",
                    "name": "_duration",
                    "type": "uint256"
                }
            ],
            "name": "borrow",
            "outputs": [],
            "stateMutability": "nonpayable",
            "type": "function"
        },
        {
            "inputs": [
                {
                    "internalType": "uint256",
                    "name": "",
                    "type": "uint256"
                }
            ],
            "name": "criteria",
            "outputs": [
                {
                    "internalType": "bool",
                    "name": "_exists",
                    "type": "bool"
                },
                {
                    "internalType": "string",
                    "name": "_name",
                    "type": "string"
                },
                {
                    "internalType": "string",
                    "name": "_type",
                    "type": "string"
                },
                {
                    "internalType": "string",
                    "name": "_content",
                    "type": "string"
                },
                {
                    "internalType": "string",
                    "name": "_operator",
                    "type": "string"
                }
            ],
            "stateMutability": "view",
            "type": "function"
        },
        {
            "inputs": [
                {
                    "internalType": "uint256",
                    "name": "amount",
                    "type": "uint256"
                }
            ],
            "name": "deposit",
            "outputs": [],
            "stateMutability": "nonpayable",
            "type": "function"
        },
        {
            "inputs": [],
            "name": "getDetails",
            "outputs": [
                {
                    "components": [
                        {
                            "internalType": "string",
                            "name": "name",
                            "type": "string"
                        },
                        {
                            "internalType": "contract ERC20",
                            "name": "token",
                            "type": "address"
                        },
                        {
                            "internalType": "uint256",
                            "name": "minLoanAmount",
                            "type": "uint256"
                        },
                        {
                            "internalType": "uint256",
                            "name": "maxLoanAmount",
                            "type": "uint256"
                        },
                        {
                            "internalType": "uint256",
                            "name": "minLoanDuration",
                            "type": "uint256"
                        },
                        {
                            "internalType": "uint256",
                            "name": "maxLoanDuration",
                            "type": "uint256"
                        },
                        {
                            "internalType": "uint256",
                            "name": "annualInterestRate",
                            "type": "uint256"
                        },
                        {
                            "internalType": "uint256",
                            "name": "disbursmentFee",
                            "type": "uint256"
                        },
                        {
                            "internalType": "uint256",
                            "name": "cashBackRate",
                            "type": "uint256"
                        }
                    ],
                    "internalType": "struct Types.PondParams",
                    "name": "_params",
                    "type": "tuple"
                },
                {
                    "components": [
                        {
                            "internalType": "bool",
                            "name": "_exists",
                            "type": "bool"
                        },
                        {
                            "internalType": "string",
                            "name": "_name",
                            "type": "string"
                        },
                        {
                            "internalType": "string",
                            "name": "_type",
                            "type": "string"
                        },
                        {
                            "internalType": "string",
                            "name": "_content",
                            "type": "string"
                        },
                        {
                            "internalType": "string",
                            "name": "_operator",
                            "type": "string"
                        }
                    ],
                    "internalType": "struct Types.PondCriteria[]",
                    "name": "_criteria",
                    "type": "tuple[]"
                },
                {
                    "internalType": "uint256",
                    "name": "_totalDeposited",
                    "type": "uint256"
                },
                {
                    "internalType": "uint256",
                    "name": "_totalUtilized",
                    "type": "uint256"
                }
            ],
            "stateMutability": "view",
            "type": "function"
        },
        {
            "inputs": [
                {
                    "internalType": "address",
                    "name": "",
                    "type": "address"
                }
            ],
            "name": "getLenderBalance",
            "outputs": [
                {
                    "internalType": "uint256",
                    "name": "",
                    "type": "uint256"
                }
            ],
            "stateMutability": "view",
            "type": "function"
        },
        {
            "inputs": [
                {
                    "internalType": "address",
                    "name": "",
                    "type": "address"
                }
            ],
            "name": "getLoan",
            "outputs": [
                {
                    "internalType": "contract Loan",
                    "name": "",
                    "type": "address"
                }
            ],
            "stateMutability": "view",
            "type": "function"
        },
        {
            "inputs": [
                {
                    "internalType": "uint256",
                    "name": "_amount",
                    "type": "uint256"
                },
                {
                    "internalType": "uint256",
                    "name": "_duration",
                    "type": "uint256"
                },
                {
                    "components": [
                        {
                            "internalType": "string[]",
                            "name": "names",
                            "type": "string[]"
                        },
                        {
                            "internalType": "string[]",
                            "name": "contents",
                            "type": "string[]"
                        }
                    ],
                    "internalType": "struct Types.PersonalCredentialsInput",
                    "name": "_credentials",
                    "type": "tuple"
                }
            ],
            "name": "getLoanOffer",
            "outputs": [
                {
                    "components": [
                        {
                            "internalType": "bool",
                            "name": "approved",
                            "type": "bool"
                        },
                        {
                            "internalType": "uint256",
                            "name": "amount",
                            "type": "uint256"
                        },
                        {
                            "internalType": "uint256",
                            "name": "duration",
                            "type": "uint256"
                        },
                        {
                            "internalType": "uint256",
                            "name": "annualInterestRate",
                            "type": "uint256"
                        },
                        {
                            "internalType": "uint256",
                            "name": "disbursmentFee",
                            "type": "uint256"
                        },
                        {
                            "internalType": "uint256",
                            "name": "cashBackRate",
                            "type": "uint256"
                        },
                        {
                            "internalType": "uint256",
                            "name": "interestAmount",
                            "type": "uint256"
                        },
                        {
                            "internalType": "uint256",
                            "name": "repayAmount",
                            "type": "uint256"
                        },
                        {
                            "internalType": "uint256",
                            "name": "installmentAmount",
                            "type": "uint256"
                        }
                    ],
                    "internalType": "struct Types.LoanOffer",
                    "name": "_loan",
                    "type": "tuple"
                }
            ],
            "stateMutability": "view",
            "type": "function"
        },
        {
            "inputs": [],
            "name": "owner",
            "outputs": [
                {
                    "internalType": "address",
                    "name": "",
                    "type": "address"
                }
            ],
            "stateMutability": "view",
            "type": "function"
        },
        {
            "inputs": [],
            "name": "renounceOwnership",
            "outputs": [],
            "stateMutability": "nonpayable",
            "type": "function"
        },
        {
            "inputs": [],
            "name": "totalDeposited",
            "outputs": [
                {
                    "internalType": "uint256",
                    "name": "",
                    "type": "uint256"
                }
            ],
            "stateMutability": "view",
            "type": "function"
        },
        {
            "inputs": [],
            "name": "totalUtilized",
            "outputs": [
                {
                    "internalType": "uint256",
                    "name": "",
                    "type": "uint256"
                }
            ],
            "stateMutability": "view",
            "type": "function"
        },
        {
            "inputs": [
                {
                    "internalType": "address",
                    "name": "newOwner",
                    "type": "address"
                }
            ],
            "name": "transferOwnership",
            "outputs": [],
            "stateMutability": "nonpayable",
            "type": "function"
        }
    ],
    "bytecode": "60806040523480156200001157600080fd5b5060405162003aa238038062003aa28339810160408190526200003491620007be565b8062000040336200016f565b8051516020820151511480156200005d5750805151604082015151145b8015620000705750805151606082015151145b620000c15760405162461bcd60e51b815260206004820152601e60248201527f47726f77722e202d20496e76616c696420706f6e642063726974657269610000604482015260640160405180910390fd5b620000cc81620001bf565b506011805460ff19166001179055815180518391600391620000f691839160209091019062000448565b5060208201516001820180546001600160a01b0319166001600160a01b0390921691909117905560408201516002820155606082015160038201556080820151600482015560a0820151600582015560c0820151600682015560e082015160078201556101009091015160089091015550620009539050565b600080546001600160a01b038381166001600160a01b0319831681178455604051919092169283917f8be0079c531659141344cd1fd0a4f28419497f9722a3daafe3b4186f6b6457e09190a35050565b60005b815151811015620004445760006040518060a0016040528060011515815260200184600001518481518110620001fc57620001fc620008b8565b6020026020010151815260200184602001518481518110620002225762000222620008b8565b6020026020010151815260200184604001518481518110620002485762000248620008b8565b60200260200101518152602001846060015184815181106200026e576200026e620008b8565b6020908102919091018101519091526002805460018101825560009190915282517f405787fa12a823e0f2b7631cc41b3ba8828b3321ca811111fa75cd3aa3bb5ace6005909202918201805460ff19169115159190911781558383015180519495508594919362000305937f405787fa12a823e0f2b7631cc41b3ba8828b3321ca811111fa75cd3aa3bb5acf019291019062000448565b50604082015180516200032391600284019160209091019062000448565b50606082015180516200034191600384019160209091019062000448565b50608082015180516200035f91600484019160209091019062000448565b505050806001846000015184815181106200037e576200037e620008b8565b6020026020010151604051620003959190620008ce565b908152604051602091819003820190208251815460ff19169015151781558282015180519192620003cf9260018501929091019062000448565b5060408201518051620003ed91600284019160209091019062000448565b50606082015180516200040b91600384019160209091019062000448565b50608082015180516200042991600484019160209091019062000448565b509050505080806200043b90620008ec565b915050620001c2565b5050565b828054620004569062000916565b90600052602060002090601f0160209004810192826200047a5760008555620004c5565b82601f106200049557805160ff1916838001178555620004c5565b82800160010185558215620004c5579182015b82811115620004c5578251825591602001919060010190620004a8565b50620004d3929150620004d7565b5090565b5b80821115620004d35760008155600101620004d8565b634e487b7160e01b600052604160045260246000fd5b604051608081016001600160401b0381118282101715620005295762000529620004ee565b60405290565b60405161012081016001600160401b0381118282101715620005295762000529620004ee565b604051601f8201601f191681016001600160401b0381118282101715620005805762000580620004ee565b604052919050565b60005b83811015620005a55781810151838201526020016200058b565b83811115620005b5576000848401525b50505050565b600082601f830112620005cd57600080fd5b81516001600160401b03811115620005e957620005e9620004ee565b620005fe601f8201601f191660200162000555565b8181528460208386010111156200061457600080fd5b6200062782602083016020870162000588565b949350505050565b80516001600160a01b03811681146200064757600080fd5b919050565b600082601f8301126200065e57600080fd5b815160206001600160401b03808311156200067d576200067d620004ee565b8260051b6200068e83820162000555565b9384528581018301938381019088861115620006a957600080fd5b84880192505b85831015620006ea57825184811115620006c95760008081fd5b620006d98a87838c0101620005bb565b8352509184019190840190620006af565b98975050505050505050565b6000608082840312156200070957600080fd5b6200071362000504565b82519091506001600160401b03808211156200072e57600080fd5b6200073c858386016200064c565b835260208401519150808211156200075357600080fd5b62000761858386016200064c565b602084015260408401519150808211156200077b57600080fd5b62000789858386016200064c565b60408401526060840151915080821115620007a357600080fd5b50620007b2848285016200064c565b60608301525092915050565b60008060408385031215620007d257600080fd5b82516001600160401b0380821115620007ea57600080fd5b9084019061012082870312156200080057600080fd5b6200080a6200052f565b8251828111156200081a57600080fd5b6200082888828601620005bb565b82525062000839602084016200062f565b602082015260408301516040820152606083015160608201526080830151608082015260a083015160a082015260c083015160c082015260e083015160e08201526101008084015181830152508094505060208501519150808211156200089f57600080fd5b50620008ae85828601620006f6565b9150509250929050565b634e487b7160e01b600052603260045260246000fd5b60008251620008e281846020870162000588565b9190910192915050565b60006000198214156200090f57634e487b7160e01b600052601160045260246000fd5b5060010190565b600181811c908216806200092b57607f821691505b602082108114156200094d57634e487b7160e01b600052602260045260246000fd5b50919050565b61313f80620009636000396000f3fe60806040523480156200001157600080fd5b5060043610620000fd5760003560e01c8063715018a61162000097578063bd09085a116200006e578063bd09085a146200028a578063f2fde38b14620002ad578063fbbf93a014620002c4578063ff50abdc14620002e057600080fd5b8063715018a614620002575780638da5cb5b1462000261578063b6b55f25146200027357600080fd5b806333481fc911620000d857806333481fc914620001c557806345fe329f146200020a57806356274c15146200022357806364d4fbbf146200024d57600080fd5b806302fb0c5e14620001025780630ecbcdab1462000125578063156cbe02146200013e575b600080fd5b601154620001109060ff1681565b60405190151581526020015b60405180910390f35b6200013c62000136366004620018ee565b620002ea565b005b620001556200014f36600462001a61565b6200060a565b6040516200011c91906000610120820190508251151582526020830151602083015260408301516040830152606083015160608301526080830151608083015260a083015160a083015260c083015160c083015260e083015160e083015261010080840151818401525092915050565b620001f1620001d636600462001b29565b600d602052600090815260409020546001600160a01b031681565b6040516001600160a01b0390911681526020016200011c565b6200021460105481565b6040519081526020016200011c565b6200023a6200023436600462001b5b565b620007cd565b6040516200011c95949392919062001bd2565b62000214600f5481565b6200013c62000a54565b6000546001600160a01b0316620001f1565b6200013c6200028436600462001b5b565b62000abe565b620002146200029b36600462001b29565b600c6020526000908152604090205481565b6200013c620002be36600462001b29565b62000ba9565b620002ce62000c7a565b6040516200011c949392919062001d03565b62000214600e5481565b600554821015620003565760405162461bcd60e51b815260206004820152602b60248201527f47726f77722e2d20416d6f756e74206973206c657373207468616e206d696e2060448201526a1b1bd85b88185b5bdd5b9d60aa1b60648201526084015b60405180910390fd5b600654821115620003ba5760405162461bcd60e51b815260206004820152602760248201527f47726f77722e202d20416d6f756e742065786365656473206d6178206c6f616e60448201526608185b5bdd5b9d60ca1b60648201526084016200034d565b620003c4620010e3565b821115620004215760405162461bcd60e51b815260206004820152602360248201527f47726f77722e202d204e6f7420656e6f7567682066756e647320746f20626f72604482015262726f7760e81b60648201526084016200034d565b6007548110156200048e5760405162461bcd60e51b815260206004820152603060248201527f47726f77722e202d204475726174696f6e206973206c657373207468616e206d60448201526f34b7103637b0b710323ab930ba34b7b760811b60648201526084016200034d565b600854811115620004f65760405162461bcd60e51b815260206004820152602b60248201527f47726f77722e202d204475726174696f6e2065786365656473206d6178206c6f60448201526a30b710323ab930ba34b7b760a91b60648201526084016200034d565b6001600f5462000507908462001174565b5082826003600601546003600701546003600801546040516200052a90620018e0565b948552602085019390935260408401919091526060830152608082015260a001604051809103906000f08015801562000567573d6000803e3d6000fd5b50336000818152600d60205260409081902080546001600160a01b0319166001600160a01b0394851617905560048054915163a9059cbb60e01b815290810192909252602482018690529091169063a9059cbb906044016020604051808303816000875af1158015620005de573d6000803e3d6000fd5b505050506040513d601f19601f8201168201806040525081019062000604919062001db7565b50505050565b6200065c60405180610120016040528060001515815260200160008152602001600081526020016000815260200160008152602001600081526020016000815260200160008152602001600081525090565b60115460ff16620006815760405162461bcd60e51b81526004016200034d9062001ddb565b600554849084908210156200069b576005549150620006ac565b600654821115620006ac5760065491505b600754811015620006c15750600754620006d1565b600854811115620006d157506008545b6000620006de856200118b565b90506000620006ec620010e3565b905060008111620006fc57600091505b8084111562000709578093505b60408051610120810182526000808252602082018790529181018590526009546060820152600a546080820152600b5460a082015260c0810182905260e0810182905261010081019190915294508115620007c257600185526009546200079490600c906200078d906064908290889062000786908b906200127a565b906200127a565b9062001288565b60c08601819052620007a890859062001174565b60e08601819052620007bb908462001288565b6101008601525b505050509392505050565b60028181548110620007de57600080fd5b60009182526020909120600590910201805460018201805460ff909216935090620008099062001e1e565b80601f0160208091040260200160405190810160405280929190818152602001828054620008379062001e1e565b8015620008885780601f106200085c5761010080835404028352916020019162000888565b820191906000526020600020905b8154815290600101906020018083116200086a57829003601f168201915b5050505050908060020180546200089f9062001e1e565b80601f0160208091040260200160405190810160405280929190818152602001828054620008cd9062001e1e565b80156200091e5780601f10620008f2576101008083540402835291602001916200091e565b820191906000526020600020905b8154815290600101906020018083116200090057829003601f168201915b505050505090806003018054620009359062001e1e565b80601f0160208091040260200160405190810160405280929190818152602001828054620009639062001e1e565b8015620009b45780601f106200098857610100808354040283529160200191620009b4565b820191906000526020600020905b8154815290600101906020018083116200099657829003601f168201915b505050505090806004018054620009cb9062001e1e565b80601f0160208091040260200160405190810160405280929190818152602001828054620009f99062001e1e565b801562000a4a5780601f1062000a1e5761010080835404028352916020019162000a4a565b820191906000526020600020905b81548152906001019060200180831162000a2c57829003601f168201915b5050505050905085565b6000546001600160a01b0316331462000ab05760405162461bcd60e51b815260206004820181905260248201527f4f776e61626c653a2063616c6c6572206973206e6f7420746865206f776e657260448201526064016200034d565b62000abc600062001296565b565b60115460ff1662000ae35760405162461bcd60e51b81526004016200034d9062001ddb565b600e5462000af2908262001174565b600e55336000908152600c602052604090205462000b11908262001174565b336000818152600c602052604090819020929092556004805492516323b872dd60e01b815290810191909152306024820152604481018390526001600160a01b03909116906323b872dd906064016020604051808303816000875af115801562000b7f573d6000803e3d6000fd5b505050506040513d601f19601f8201168201806040525081019062000ba5919062001db7565b5050565b6000546001600160a01b0316331462000c055760405162461bcd60e51b815260206004820181905260248201527f4f776e61626c653a2063616c6c6572206973206e6f7420746865206f776e657260448201526064016200034d565b6001600160a01b03811662000c6c5760405162461bcd60e51b815260206004820152602660248201527f4f776e61626c653a206e6577206f776e657220697320746865207a65726f206160448201526564647265737360d01b60648201526084016200034d565b62000c778162001296565b50565b62000cd36040518061012001604052806060815260200160006001600160a01b03168152602001600081526020016000815260200160008152602001600081526020016000815260200160008152602001600081525090565b606060008060036002600e54600f54836040518061012001604052908160008201805462000d019062001e1e565b80601f016020809104026020016040519081016040528092919081815260200182805462000d2f9062001e1e565b801562000d805780601f1062000d545761010080835404028352916020019162000d80565b820191906000526020600020905b81548152906001019060200180831162000d6257829003601f168201915b505050505081526020016001820160009054906101000a90046001600160a01b03166001600160a01b03166001600160a01b03168152602001600282015481526020016003820154815260200160048201548152602001600582015481526020016006820154815260200160078201548152602001600882015481525050935082805480602002602001604051908101604052809291908181526020016000905b82821015620010cf5760008481526020908190206040805160a0810190915260058502909101805460ff1615158252600181018054929391929184019162000e699062001e1e565b80601f016020809104026020016040519081016040528092919081815260200182805462000e979062001e1e565b801562000ee85780601f1062000ebc5761010080835404028352916020019162000ee8565b820191906000526020600020905b81548152906001019060200180831162000eca57829003601f168201915b5050505050815260200160028201805462000f039062001e1e565b80601f016020809104026020016040519081016040528092919081815260200182805462000f319062001e1e565b801562000f825780601f1062000f565761010080835404028352916020019162000f82565b820191906000526020600020905b81548152906001019060200180831162000f6457829003601f168201915b5050505050815260200160038201805462000f9d9062001e1e565b80601f016020809104026020016040519081016040528092919081815260200182805462000fcb9062001e1e565b80156200101c5780601f1062000ff0576101008083540402835291602001916200101c565b820191906000526020600020905b81548152906001019060200180831162000ffe57829003601f168201915b50505050508152602001600482018054620010379062001e1e565b80601f0160208091040260200160405190810160405280929190818152602001828054620010659062001e1e565b8015620010b65780601f106200108a57610100808354040283529160200191620010b6565b820191906000526020600020905b8154815290600101906020018083116200109857829003601f168201915b5050505050815250508152602001906001019062000e21565b505050509250935093509350935090919293565b601054600f54600480546040516370a0823160e01b815230928101929092526000936200116f93909262001168926001600160a01b0316906370a0823190602401602060405180830381865afa15801562001142573d6000803e3d6000fd5b505050506040513d601f19601f8201168201806040525081019062001168919062001e5b565b90620012e6565b905090565b600062001182828462001e8b565b90505b92915050565b60208101515181515160009114620011f45760405162461bcd60e51b815260206004820152602560248201527f47726f77722e202d20496e76616c696420706572736f6e616c2063726564656e6044820152647469616c7360d81b60648201526084016200034d565b600160005b8351518110156200127357620012508460000151828151811062001221576200122162001ea6565b60200260200101518560200151838151811062001242576200124262001ea6565b6020026020010151620012f4565b9150816200125e5762001273565b806200126a8162001ebc565b915050620011f9565b5092915050565b600062001182828462001eda565b600062001182828462001efc565b600080546001600160a01b038381166001600160a01b0319831681178455604051919092169283917f8be0079c531659141344cd1fd0a4f28419497f9722a3daafe3b4186f6b6457e09190a35050565b600062001182828462001f1f565b60008060018460405162001309919062001f39565b90815260408051918290036020908101832060a08401909252815460ff161515835260018201805491840191620013409062001e1e565b80601f01602080910402602001604051908101604052809291908181526020018280546200136e9062001e1e565b8015620013bf5780601f106200139357610100808354040283529160200191620013bf565b820191906000526020600020905b815481529060010190602001808311620013a157829003601f168201915b50505050508152602001600282018054620013da9062001e1e565b80601f0160208091040260200160405190810160405280929190818152602001828054620014089062001e1e565b8015620014595780601f106200142d5761010080835404028352916020019162001459565b820191906000526020600020905b8154815290600101906020018083116200143b57829003601f168201915b50505050508152602001600382018054620014749062001e1e565b80601f0160208091040260200160405190810160405280929190818152602001828054620014a29062001e1e565b8015620014f35780601f10620014c757610100808354040283529160200191620014f3565b820191906000526020600020905b815481529060010190602001808311620014d557829003601f168201915b505050505081526020016004820180546200150e9062001e1e565b80601f01602080910402602001604051908101604052809291908181526020018280546200153c9062001e1e565b80156200158d5780601f1062001561576101008083540402835291602001916200158d565b820191906000526020600020905b8154815290600101906020018083116200156f57829003601f168201915b50505050508152505090508060000151620015ad57600091505062001185565b6040805180820182526006815265737472696e6760d01b6020918201529082015180519101207f97fc46276c172633607a331542609db1e3da793fca183d594ed5a61803a1079214156200161a576060015182516020808501919091208251919092012014905062001185565b60408051808201825260048152631d5a5b9d60e21b6020918201529082015180519101207f78b9198c2298bca6916a2669592af279cda8160226cf57bc4580c40c0a8b17131415620017d45760006200167882606001516020015190565b9050600062001688856020015190565b9050620016bc604051806040016040528060018152602001603d60f81b8152508460800151620018ca90919063ffffffff16565b15620016cd57149150620011859050565b6040805180820190915260018152600f60fa1b602091820152608084015180519101207f8cb938a03d27235fdf22924e770f8c8a7fc7441e706e979b359839d1efe7252014156200172357119150620011859050565b6040805180820190915260018152601f60f91b602091820152608084015180519101207feff31f7855752a3582db9a0d965d5063f23d94003e66f8c5a8f8e8fe2ab2475314156200177957109150620011859050565b604080518082019091526002815261213d60f01b602091820152608084015180519101207f9ac244772c728e3ea33abaab05d51ed9065114029a53892fd1ed2fbb33ede3c81415620017d15714159150620011859050565b50505b6040805180820182526004815263189bdbdb60e21b6020918201529082015180519101207fc1053bdab4a5cf55238b667c39826bbb11a58be126010e7db397c1b67c24271b1415620018c057600062001857604051806040016040528060048152602001637472756560e01b8152508360600151620018ca90919063ffffffff16565b6200186457600062001867565b60015b905060006200189c604051806040016040528060048152602001637472756560e01b81525086620018ca90919063ffffffff16565b620018a9576000620018ac565b60015b905080151582151514935050505062001185565b5060009392505050565b8051602091820120825192909101919091201490565b6111b28062001f5883390190565b600080604083850312156200190257600080fd5b50508035926020909101359150565b634e487b7160e01b600052604160045260246000fd5b604051601f8201601f1916810167ffffffffffffffff8111828210171562001953576200195362001911565b604052919050565b6000601f83818401126200196e57600080fd5b8235602067ffffffffffffffff808311156200198e576200198e62001911565b8260051b6200199f83820162001927565b9384528681018301938381019089861115620019ba57600080fd5b84890192505b8583101562001a5457823584811115620019da5760008081fd5b8901603f81018b13620019ed5760008081fd5b8581013560408682111562001a065762001a0662001911565b62001a19828b01601f1916890162001927565b8281528d8284860101111562001a2f5760008081fd5b828285018a8301376000928101890192909252508352509184019190840190620019c0565b9998505050505050505050565b60008060006060848603121562001a7757600080fd5b8335925060208401359150604084013567ffffffffffffffff8082111562001a9e57600080fd5b908501906040828803121562001ab357600080fd5b60405160408101818110838211171562001ad15762001ad162001911565b60405282358281111562001ae457600080fd5b62001af2898286016200195b565b82525060208301358281111562001b0857600080fd5b62001b16898286016200195b565b6020830152508093505050509250925092565b60006020828403121562001b3c57600080fd5b81356001600160a01b038116811462001b5457600080fd5b9392505050565b60006020828403121562001b6e57600080fd5b5035919050565b60005b8381101562001b9257818101518382015260200162001b78565b83811115620006045750506000910152565b6000815180845262001bbe81602086016020860162001b75565b601f01601f19169290920160200192915050565b851515815260a06020820152600062001bef60a083018762001ba4565b828103604084015262001c03818762001ba4565b9050828103606084015262001c19818662001ba4565b9050828103608084015262001c2f818562001ba4565b98975050505050505050565b600081518084526020808501808196508360051b8101915082860160005b8581101562001cf6578284038952815160a081511515865286820151818888015262001c888288018262001ba4565b9150506040808301518783038289015262001ca4838262001ba4565b925050506060808301518783038289015262001cc1838262001ba4565b925050506080808301519250868203818801525062001ce1818362001ba4565b9a87019a955050509084019060010162001c59565b5091979650505050505050565b608081526000855161012080608085015262001d246101a085018362001ba4565b9150602088015162001d4160a08601826001600160a01b03169052565b50604088015160c0850152606088015160e08501526080880151610100818187015260a08a01518387015260c08a015161014087015260e08a0151610160870152808a0151610180870152505050828103602084015262001da3818762001c3b565b604084019590955250506060015292915050565b60006020828403121562001dca57600080fd5b8151801515811462001b5457600080fd5b60208082526023908201527f47726f77722e202d20506f6e64206973206e6f742061637469766520616e796d6040820152626f726560e81b606082015260800190565b600181811c9082168062001e3357607f821691505b6020821081141562001e5557634e487b7160e01b600052602260045260246000fd5b50919050565b60006020828403121562001e6e57600080fd5b5051919050565b634e487b7160e01b600052601160045260246000fd5b6000821982111562001ea15762001ea162001e75565b500190565b634e487b7160e01b600052603260045260246000fd5b600060001982141562001ed35762001ed362001e75565b5060010190565b600081600019048311821515161562001ef75762001ef762001e75565b500290565b60008262001f1a57634e487b7160e01b600052601260045260246000fd5b500490565b60008282101562001f345762001f3462001e75565b500390565b6000825162001f4d81846020870162001b75565b919091019291505056fe60806040523480156200001157600080fd5b50604051620011b2380380620011b283398101604081905262000034916200067a565b60008054336001600160a01b031990911617905542600b819055620000679060016200015e602090811b6200023e17901c565b600a556000620000ba600c620000a660648189620000928c8b62000253602090811b6200031517901c565b6200025360201b620003151790919060201c565b6200026a60201b6200032a1790919060201c565b90506000620000d882886200027860201b620003361790919060201c565b90506000620000f687836200026a60201b6200032a1790919060201c565b60408051610100810182528a8152602081018a9052908101889052606081018790526080810186905260a0810185905260c0810184905260e00181905260019890985550600295909555600393909355600491909155600555600655600755600855620008bd565b60008080806200017c620001766201518088620006e7565b62000286565b919450925090506200018f8583620006fe565b9150600c620001a060018462000719565b620001ac9190620006e7565b620001b89084620006fe565b9250600c620001c960018462000719565b620001d5919062000733565b620001e2906001620006fe565b91506000620001f2848462000432565b90508082111562000201578091505b62000210620151808862000733565b6201518062000221868686620004c6565b6200022d91906200074a565b620002399190620006fe565b9450868510156200024957600080fd5b5050505092915050565b60006200026182846200074a565b90505b92915050565b6000620002618284620006e7565b6000620002618284620006fe565b60008080838162253d8c6200029f8362010bd96200076c565b620002ab91906200076c565b9050600062023ab1620002c0836004620007b3565b620002cc919062000844565b90506004620002df8262023ab1620007b3565b620002ec9060036200076c565b620002f8919062000844565b62000304908362000878565b9150600062164b09620003198460016200076c565b6200032790610fa0620007b3565b62000333919062000844565b9050600462000345826105b5620007b3565b62000351919062000844565b6200035d908462000878565b6200036a90601f6200076c565b9250600061098f6200037e856050620007b3565b6200038a919062000844565b9050600060506200039e8361098f620007b3565b620003aa919062000844565b620003b6908662000878565b9050620003c5600b8362000844565b9450620003d485600c620007b3565b620003e18360026200076c565b620003ed919062000878565b91508483620003fe60318762000878565b6200040b906064620007b3565b6200041791906200076c565b6200042391906200076c565b9a919950975095505050505050565b60008160011480620004445750816003145b80620004505750816005145b806200045c5750816007145b80620004685750816008145b8062000474575081600a145b8062000480575081600c145b156200048f5750601f62000264565b81600214620004a15750601e62000264565b620004ac8362000636565b620004b957601c620004bc565b601d5b60ff169392505050565b60006107b2841015620004d857600080fd5b838383600062253d8c60046064600c620004f4600e8862000878565b62000500919062000844565b6200050e886113246200076c565b6200051a91906200076c565b62000526919062000844565b62000533906003620007b3565b6200053f919062000844565b600c806200054f600e8862000878565b6200055b919062000844565b6200056890600c620007b3565b6200057560028862000878565b62000581919062000878565b6200058f9061016f620007b3565b6200059b919062000844565b6004600c620005ac600e8962000878565b620005b8919062000844565b620005c6896112c06200076c565b620005d291906200076c565b620005e0906105b5620007b3565b620005ec919062000844565b620005fa617d4b8762000878565b6200060691906200076c565b6200061291906200076c565b6200061e919062000878565b6200062a919062000878565b98975050505050505050565b60006200064560048362000733565b1580156200065e57506200065b60648362000733565b15155b80620002645750620006736101908362000733565b1592915050565b600080600080600060a086880312156200069357600080fd5b5050835160208501516040860151606087015160809097015192989197509594509092509050565b634e487b7160e01b600052601260045260246000fd5b634e487b7160e01b600052601160045260246000fd5b600082620006f957620006f9620006bb565b500490565b60008219821115620007145762000714620006d1565b500190565b6000828210156200072e576200072e620006d1565b500390565b600082620007455762000745620006bb565b500690565b6000816000190483118215151615620007675762000767620006d1565b500290565b600080821280156001600160ff1b0384900385131615620007915762000791620006d1565b600160ff1b8390038412811615620007ad57620007ad620006d1565b50500190565b60006001600160ff1b0381841382841380821686840486111615620007dc57620007dc620006d1565b600160ff1b6000871282811687830589121615620007fe57620007fe620006d1565b600087129250878205871284841616156200081d576200081d620006d1565b87850587128184161615620008365762000836620006d1565b505050929093029392505050565b600082620008565762000856620006bb565b600160ff1b821460001984141615620008735762000873620006d1565b500590565b60008083128015600160ff1b850184121615620008995762000899620006d1565b6001600160ff1b0384018313811615620008b757620008b7620006d1565b50500390565b6108e580620008cd6000396000f3fe608060405234801561001057600080fd5b50600436106100625760003560e01c8063371fd8e6146100675780634eb8801d1461007c5780638437eeb614610098578063f38a95e3146100a1578063f98b8028146100cc578063fbbf93a0146100d5575b600080fd5b61007a6100753660046106c1565b610156565b005b610085600a5481565b6040519081526020015b60405180910390f35b610085600b5481565b6000546100b4906001600160a01b031681565b6040516001600160a01b03909116815260200161008f565b61008560095481565b6100dd610174565b6040805186518152602080880151908201528682015191810191909152606080870151908201526080808701519082015260a0808701519082015260c0808701519082015260e095860151958101959095526101008501939093526101208401919091526101408301526101608201526101800161008f565b600a544211156101715761016d600a54600161023e565b600a555b50565b6101bc60405180610100016040528060008152602001600081526020016000815260200160008152602001600081526020016000815260200160008152602001600081525090565b6000806000806101dc60095460016006015461034290919063ffffffff16565b600954600a54604080516101008101825260015481526002546020820152600354918101919091526004546060820152600554608082015260065460a082015260075460c082015260085460e082015298919750919550600094509092509050565b60008080806102586102536201518088610706565b61034e565b91945092509050610269858361071a565b9150600c610278600184610732565b6102829190610706565b61028c908461071a565b9250600c61029b600184610732565b6102a59190610749565b6102b090600161071a565b915060006102be84846104c2565b9050808211156102cc578091505b6102d96201518088610749565b620151806102e8868686610548565b6102f2919061075d565b6102fc919061071a565b94508685101561030b57600080fd5b5050505092915050565b6000610321828461075d565b90505b92915050565b60006103218284610706565b6000610321828461071a565b60006103218284610732565b60008080838162253d8c6103658362010bd961077c565b61036f919061077c565b9050600062023ab16103828360046107bd565b61038c9190610842565b9050600461039d8262023ab16107bd565b6103a890600361077c565b6103b29190610842565b6103bc9083610870565b9150600062164b096103cf84600161077c565b6103db90610fa06107bd565b6103e59190610842565b905060046103f5826105b56107bd565b6103ff9190610842565b6104099084610870565b61041490601f61077c565b9250600061098f6104268560506107bd565b6104309190610842565b9050600060506104428361098f6107bd565b61044c9190610842565b6104569086610870565b9050610463600b83610842565b945061047085600c6107bd565b61047b83600261077c565b6104859190610870565b91508483610494603187610870565b61049f9060646107bd565b6104a9919061077c565b6104b3919061077c565b9a919950975095505050505050565b600081600114806104d35750816003145b806104de5750816005145b806104e95750816007145b806104f45750816008145b806104ff575081600a145b8061050a575081600c145b156105175750601f610324565b816002146105275750601e610324565b61053083610685565b61053b57601c61053e565b601d5b60ff169392505050565b60006107b284101561055957600080fd5b838383600062253d8c60046064600c610573600e88610870565b61057d9190610842565b6105898861132461077c565b610593919061077c565b61059d9190610842565b6105a89060036107bd565b6105b29190610842565b600c806105c0600e88610870565b6105ca9190610842565b6105d590600c6107bd565b6105e0600288610870565b6105ea9190610870565b6105f69061016f6107bd565b6106009190610842565b6004600c61060f600e89610870565b6106199190610842565b610625896112c061077c565b61062f919061077c565b61063b906105b56107bd565b6106459190610842565b610651617d4b87610870565b61065b919061077c565b610665919061077c565b61066f9190610870565b6106799190610870565b98975050505050505050565b6000610692600483610749565b1580156106a857506106a5606483610749565b15155b8061032457506106ba61019083610749565b1592915050565b6000602082840312156106d357600080fd5b5035919050565b634e487b7160e01b600052601260045260246000fd5b634e487b7160e01b600052601160045260246000fd5b600082610715576107156106da565b500490565b6000821982111561072d5761072d6106f0565b500190565b600082821015610744576107446106f0565b500390565b600082610758576107586106da565b500690565b6000816000190483118215151615610777576107776106f0565b500290565b600080821280156001600160ff1b038490038513161561079e5761079e6106f0565b600160ff1b83900384128116156107b7576107b76106f0565b50500190565b60006001600160ff1b03818413828413808216868404861116156107e3576107e36106f0565b600160ff1b6000871282811687830589121615610802576108026106f0565b6000871292508782058712848416161561081e5761081e6106f0565b87850587128184161615610834576108346106f0565b505050929093029392505050565b600082610851576108516106da565b600160ff1b82146000198414161561086b5761086b6106f0565b500590565b60008083128015600160ff1b85018412161561088e5761088e6106f0565b6001600160ff1b03840183138116156108a9576108a96106f0565b5050039056fea26469706673582212209738ff9196b78d8138098444688ee9b58c05b0e99b25fc28a79553a7b1182f8864736f6c634300080c0033a264697066735822122094dafda3aa94fde5d851c9461c1987c2719ace6ee2333877b02b59c5cba4c08f64736f6c634300080c0033",
    "sourcePath": "p:/code/SideProjects/growr-core-protocol/contracts/protocol/Pond.sol",
    "compiler": {
        "name": "solc",
        "version": "0.8.12+commit.f00d7308"
    },
    "functionHashes": {
        "accruedInterest()": "45fe329f",
        "active()": "02fb0c5e",
        "borrow(uint256,uint256)": "0ecbcdab",
        "criteria(uint256)": "56274c15",
        "deposit(uint256)": "b6b55f25",
        "getDetails()": "fbbf93a0",
        "getLenderBalance(address)": "bd09085a",
        "getLoan(address)": "33481fc9",
        "getLoanOffer(uint256,uint256,(string[],string[]))": "156cbe02",
        "owner()": "8da5cb5b",
        "renounceOwnership()": "715018a6",
        "totalDeposited()": "ff50abdc",
        "totalUtilized()": "64d4fbbf",
        "transferOwnership(address)": "f2fde38b"
    },
    "gasEstimates": {
        "creation": {
            "codeDepositCost": "2521400",
            "executionCost": "infinite",
            "totalCost": "infinite"
        },
        "external": {
            "accruedInterest()": "2340",
            "active()": "2323",
            "borrow(uint256,uint256)": "infinite",
            "criteria(uint256)": "infinite",
            "deposit(uint256)": "infinite",
            "getDetails()": "infinite",
            "getLenderBalance(address)": "2506",
            "getLoan(address)": "2546",
            "getLoanOffer(uint256,uint256,(string[],string[]))": "infinite",
            "owner()": "2376",
            "renounceOwnership()": "28137",
            "totalDeposited()": "2383",
            "totalUtilized()": "2384",
            "transferOwnership(address)": "28318"
        },
        "internal": {
            "getAvailableBalance()": "infinite"
        }
    }
}